{
  "address": "0xCF7Bd9d808b626C722aD031D5EB342a2f05ddcB6",
  "abi": [
    {
      "inputs": [
        {
          "internalType": "address",
          "name": "_token",
          "type": "address"
        }
      ],
      "stateMutability": "nonpayable",
      "type": "constructor"
    },
    {
      "anonymous": false,
      "inputs": [
        {
          "indexed": true,
          "internalType": "address",
          "name": "to",
          "type": "address"
        },
        {
          "indexed": false,
          "internalType": "uint256",
          "name": "value",
          "type": "uint256"
        }
      ],
      "name": "BoughtTokens",
      "type": "event"
    },
    {
      "anonymous": false,
      "inputs": [
        {
          "indexed": true,
          "internalType": "address",
          "name": "previousOwner",
          "type": "address"
        },
        {
          "indexed": true,
          "internalType": "address",
          "name": "newOwner",
          "type": "address"
        }
      ],
      "name": "OwnershipTransferred",
      "type": "event"
    },
    {
      "inputs": [],
      "name": "amountPerAddress",
      "outputs": [
        {
          "internalType": "uint256",
          "name": "",
          "type": "uint256"
        }
      ],
      "stateMutability": "view",
      "type": "function"
    },
    {
      "inputs": [
        {
          "internalType": "address",
          "name": "",
          "type": "address"
        }
      ],
      "name": "balance",
      "outputs": [
        {
          "internalType": "uint256",
          "name": "",
          "type": "uint256"
        }
      ],
      "stateMutability": "view",
      "type": "function"
    },
    {
      "inputs": [],
      "name": "buyTokens",
      "outputs": [],
      "stateMutability": "payable",
      "type": "function"
    },
    {
      "inputs": [],
      "name": "cap",
      "outputs": [
        {
          "internalType": "uint256",
          "name": "",
          "type": "uint256"
        }
      ],
      "stateMutability": "view",
      "type": "function"
    },
    {
      "inputs": [],
      "name": "end",
      "outputs": [],
      "stateMutability": "nonpayable",
      "type": "function"
    },
    {
      "inputs": [],
      "name": "goalReached",
      "outputs": [
        {
          "internalType": "bool",
          "name": "",
          "type": "bool"
        }
      ],
      "stateMutability": "view",
      "type": "function"
    },
    {
      "inputs": [],
      "name": "isActive",
      "outputs": [
        {
          "internalType": "bool",
          "name": "",
          "type": "bool"
        }
      ],
      "stateMutability": "view",
      "type": "function"
    },
    {
      "inputs": [],
      "name": "owner",
      "outputs": [
        {
          "internalType": "address",
          "name": "",
          "type": "address"
        }
      ],
      "stateMutability": "view",
      "type": "function"
    },
    {
      "inputs": [],
      "name": "raisedAmount",
      "outputs": [
        {
          "internalType": "uint256",
          "name": "",
          "type": "uint256"
        }
      ],
      "stateMutability": "view",
      "type": "function"
    },
    {
      "inputs": [],
      "name": "rate",
      "outputs": [
        {
          "internalType": "uint256",
          "name": "",
          "type": "uint256"
        }
      ],
      "stateMutability": "view",
      "type": "function"
    },
    {
      "inputs": [],
      "name": "renounceOwnership",
      "outputs": [],
      "stateMutability": "nonpayable",
      "type": "function"
    },
    {
      "inputs": [],
      "name": "sellDays",
      "outputs": [
        {
          "internalType": "uint256",
          "name": "",
          "type": "uint256"
        }
      ],
      "stateMutability": "view",
      "type": "function"
    },
    {
      "inputs": [],
      "name": "start",
      "outputs": [
        {
          "internalType": "uint256",
          "name": "",
          "type": "uint256"
        }
      ],
      "stateMutability": "view",
      "type": "function"
    },
    {
      "inputs": [],
      "name": "token",
      "outputs": [
        {
          "internalType": "contract IERC20",
          "name": "",
          "type": "address"
        }
      ],
      "stateMutability": "view",
      "type": "function"
    },
    {
      "inputs": [
        {
          "internalType": "address",
          "name": "newOwner",
          "type": "address"
        }
      ],
      "name": "transferOwnership",
      "outputs": [],
      "stateMutability": "nonpayable",
      "type": "function"
    },
    {
      "stateMutability": "payable",
      "type": "receive"
    }
  ],
  "transactionHash": "0x69267a55e0ad2352f4640e40fa46c2f47b934fbbf7100c8b7c084a39da6bb39f",
  "args": [
    "0x14c0C7617aeC8713C7959252bCEb505D3ee4688a"
  ],
  "numDeployments": 1,
  "solcInputHash": "fb6aa863561d6e2caf6f7e31a26b827a",
  "bytecode": "0x6080604052600060025534801561001557600080fd5b50604051610b9d380380610b9d833981016040819052610034916100b2565b61003d33610062565b600180546001600160a01b0319166001600160a01b03929092169190911790556100e0565b600080546001600160a01b038381166001600160a01b0319831681178455604051919092169283917f8be0079c531659141344cd1fd0a4f28419497f9722a3daafe3b4186f6b6457e09190a35050565b6000602082840312156100c3578081fd5b81516001600160a01b03811681146100d9578182fd5b9392505050565b610aae806100ef6000396000f3fe6080604052600436106100ec5760003560e01c8063be9a65551161008a578063e3d670d711610059578063e3d670d71461023c578063efbe1c1c14610269578063f2fde38b1461027e578063fc0c546a1461029e57600080fd5b8063be9a6555146101f0578063bee550fd14610208578063c59ee1dc1461021e578063d0febe4c1461023457600080fd5b8063355274ea116100c6578063355274ea14610164578063715018a61461017a5780637d3d65221461018f5780638da5cb5b146101a457600080fd5b80630bdde5b81461010057806322f3e2d4146101285780632c4e722e1461014d57600080fd5b366100fb576100f96102cb565b005b600080fd5b34801561010c57600080fd5b50610115600a81565b6040519081526020015b60405180910390f35b34801561013457600080fd5b5061013d61051c565b604051901515815260200161011f565b34801561015957600080fd5b50610115620186a081565b34801561017057600080fd5b506101156101f481565b34801561018657600080fd5b506100f9610564565b34801561019b57600080fd5b5061013d6105f1565b3480156101b057600080fd5b5060005473ffffffffffffffffffffffffffffffffffffffff165b60405173ffffffffffffffffffffffffffffffffffffffff909116815260200161011f565b3480156101fc57600080fd5b506101156362553bf181565b34801561021457600080fd5b5061011561016d81565b34801561022a57600080fd5b5061011560025481565b6100f96102cb565b34801561024857600080fd5b50610115610257366004610981565b60036020526000908152604090205481565b34801561027557600080fd5b506100f9610611565b34801561028a57600080fd5b506100f9610299366004610981565b6107e3565b3480156102aa57600080fd5b506001546101cb9073ffffffffffffffffffffffffffffffffffffffff1681565b6102d361051c565b610306577f4e487b7100000000000000000000000000000000000000000000000000000000600052600160045260246000fd5b610319600a670de0b6b3a7640000610a0c565b336000908152600360205260409020546103349034906109f4565b11156103a1576040517f08c379a000000000000000000000000000000000000000000000000000000000815260206004820152601760248201527f45786365656420616d6f756e745065724164647265737300000000000000000060448201526064015b60405180910390fd5b3460006103b1620186a083610a0c565b60405181815290915033907f61b2357f75eed32a19939598e4c7563879bacd78e9d957c31f0f9f70a3fd14a09060200160405180910390a2346002546103f791906109f4565b6002556001546040517fa9059cbb0000000000000000000000000000000000000000000000000000000081523360048201526024810183905273ffffffffffffffffffffffffffffffffffffffff9091169063a9059cbb90604401602060405180830381600087803b15801561046c57600080fd5b505af1158015610480573d6000803e3d6000fd5b505050506040513d601f19601f820116820180604052508101906104a491906109bc565b506000805460405173ffffffffffffffffffffffffffffffffffffffff909116913480156108fc02929091818181858888f193505050501580156104ec573d6000803e3d6000fd5b50336000908152600360205260409020546105089034906109f4565b336000908152600360205260409020555050565b60006362553bf1421015801561054e575061053c61016d62015180610a0c565b61054a906362553bf16109f4565b4211155b801561055f575061055d6105f1565b155b905090565b60005473ffffffffffffffffffffffffffffffffffffffff1633146105e5576040517f08c379a000000000000000000000000000000000000000000000000000000000815260206004820181905260248201527f4f776e61626c653a2063616c6c6572206973206e6f7420746865206f776e65726044820152606401610398565b6105ef600061090c565b565b60006106076101f4670de0b6b3a7640000610a0c565b6002541015905090565b60005473ffffffffffffffffffffffffffffffffffffffff163314610692576040517f08c379a000000000000000000000000000000000000000000000000000000000815260206004820181905260248201527f4f776e61626c653a2063616c6c6572206973206e6f7420746865206f776e65726044820152606401610398565b6001546040517f70a0823100000000000000000000000000000000000000000000000000000000815230600482015273ffffffffffffffffffffffffffffffffffffffff9091169063a9059cbb90339083906370a082319060240160206040518083038186803b15801561070557600080fd5b505afa158015610719573d6000803e3d6000fd5b505050506040513d601f19601f8201168201806040525081019061073d91906109dc565b6040517fffffffff0000000000000000000000000000000000000000000000000000000060e085901b16815273ffffffffffffffffffffffffffffffffffffffff90921660048301526024820152604401602060405180830381600087803b1580156107a857600080fd5b505af11580156107bc573d6000803e3d6000fd5b505050506040513d601f19601f820116820180604052508101906107e091906109bc565b50565b60005473ffffffffffffffffffffffffffffffffffffffff163314610864576040517f08c379a000000000000000000000000000000000000000000000000000000000815260206004820181905260248201527f4f776e61626c653a2063616c6c6572206973206e6f7420746865206f776e65726044820152606401610398565b73ffffffffffffffffffffffffffffffffffffffff8116610907576040517f08c379a000000000000000000000000000000000000000000000000000000000815260206004820152602660248201527f4f776e61626c653a206e6577206f776e657220697320746865207a65726f206160448201527f64647265737300000000000000000000000000000000000000000000000000006064820152608401610398565b6107e0815b6000805473ffffffffffffffffffffffffffffffffffffffff8381167fffffffffffffffffffffffff0000000000000000000000000000000000000000831681178455604051919092169283917f8be0079c531659141344cd1fd0a4f28419497f9722a3daafe3b4186f6b6457e09190a35050565b600060208284031215610992578081fd5b813573ffffffffffffffffffffffffffffffffffffffff811681146109b5578182fd5b9392505050565b6000602082840312156109cd578081fd5b815180151581146109b5578182fd5b6000602082840312156109ed578081fd5b5051919050565b60008219821115610a0757610a07610a49565b500190565b6000817fffffffffffffffffffffffffffffffffffffffffffffffffffffffffffffffff0483118215151615610a4457610a44610a49565b500290565b7f4e487b7100000000000000000000000000000000000000000000000000000000600052601160045260246000fdfea2646970667358221220c15253a4a42ea626cbc2c04e5962f3a23455ad2fa953b5b5261d4e4aa5a6e30e64736f6c63430008040033",
  "devdoc": {
    "kind": "dev",
    "methods": {
      "owner()": {
        "details": "Returns the address of the current owner."
      },
      "renounceOwnership()": {
        "details": "Leaves the contract without owner. It will not be possible to call `onlyOwner` functions anymore. Can only be called by the current owner. NOTE: Renouncing ownership will leave the contract without an owner, thereby removing any functionality that is only available to the owner."
      },
      "transferOwnership(address)": {
        "details": "Transfers ownership of the contract to a new account (`newOwner`). Can only be called by the current owner."
      }
    },
    "version": 1
  },
  "userdoc": {
    "kind": "user",
    "methods": {},
    "version": 1
  },
  "storageLayout": {
    "storage": [
      {
        "astId": 7,
        "contract": "contracts/launch/LaunchPad.sol:LaunchPad",
        "label": "_owner",
        "offset": 0,
        "slot": "0",
        "type": "t_address"
      },
      {
        "astId": 3674,
        "contract": "contracts/launch/LaunchPad.sol:LaunchPad",
        "label": "token",
        "offset": 0,
        "slot": "1",
        "type": "t_contract(IERC20)810"
      },
      {
        "astId": 3714,
        "contract": "contracts/launch/LaunchPad.sol:LaunchPad",
        "label": "raisedAmount",
        "offset": 0,
        "slot": "2",
        "type": "t_uint256"
      },
      {
        "astId": 3718,
        "contract": "contracts/launch/LaunchPad.sol:LaunchPad",
        "label": "balance",
        "offset": 0,
        "slot": "3",
        "type": "t_mapping(t_address,t_uint256)"
      }
    ],
    "types": {
      "t_address": {
        "encoding": "inplace",
        "label": "address",
        "numberOfBytes": "20"
      },
      "t_contract(IERC20)810": {
        "encoding": "inplace",
        "label": "contract IERC20",
        "numberOfBytes": "20"
      },
      "t_mapping(t_address,t_uint256)": {
        "encoding": "mapping",
        "key": "t_address",
        "label": "mapping(address => uint256)",
        "numberOfBytes": "32",
        "value": "t_uint256"
      },
      "t_uint256": {
        "encoding": "inplace",
        "label": "uint256",
        "numberOfBytes": "32"
      }
    }
  }
}