{
  "address": "0x0F460E0fC0198e0E64b65c053841117B12C99b47",
  "abi": [
    {
      "inputs": [
        {
          "internalType": "address",
          "name": "_star",
          "type": "address"
        },
        {
          "internalType": "address",
          "name": "_quote",
          "type": "address"
        },
        {
          "internalType": "address",
          "name": "_router",
          "type": "address"
        }
      ],
      "stateMutability": "nonpayable",
      "type": "constructor"
    },
    {
      "anonymous": false,
      "inputs": [
        {
          "indexed": true,
          "internalType": "address",
          "name": "previousOwner",
          "type": "address"
        },
        {
          "indexed": true,
          "internalType": "address",
          "name": "newOwner",
          "type": "address"
        }
      ],
      "name": "OwnershipTransferred",
      "type": "event"
    },
    {
      "inputs": [],
      "name": "owner",
      "outputs": [
        {
          "internalType": "address",
          "name": "",
          "type": "address"
        }
      ],
      "stateMutability": "view",
      "type": "function"
    },
    {
      "inputs": [],
      "name": "quote",
      "outputs": [
        {
          "internalType": "address",
          "name": "",
          "type": "address"
        }
      ],
      "stateMutability": "view",
      "type": "function"
    },
    {
      "inputs": [],
      "name": "renounceOwnership",
      "outputs": [],
      "stateMutability": "nonpayable",
      "type": "function"
    },
    {
      "inputs": [],
      "name": "router",
      "outputs": [
        {
          "internalType": "address",
          "name": "",
          "type": "address"
        }
      ],
      "stateMutability": "view",
      "type": "function"
    },
    {
      "inputs": [
        {
          "internalType": "address",
          "name": "token",
          "type": "address"
        },
        {
          "internalType": "address",
          "name": "priceFeed",
          "type": "address"
        }
      ],
      "name": "setPriceFeed",
      "outputs": [],
      "stateMutability": "nonpayable",
      "type": "function"
    },
    {
      "inputs": [],
      "name": "star",
      "outputs": [
        {
          "internalType": "address",
          "name": "",
          "type": "address"
        }
      ],
      "stateMutability": "view",
      "type": "function"
    },
    {
      "inputs": [],
      "name": "starPrice",
      "outputs": [
        {
          "internalType": "uint256",
          "name": "",
          "type": "uint256"
        }
      ],
      "stateMutability": "view",
      "type": "function"
    },
    {
      "inputs": [
        {
          "internalType": "address",
          "name": "token",
          "type": "address"
        }
      ],
      "name": "tokenPrice",
      "outputs": [
        {
          "internalType": "uint256",
          "name": "",
          "type": "uint256"
        }
      ],
      "stateMutability": "view",
      "type": "function"
    },
    {
      "inputs": [
        {
          "internalType": "address",
          "name": "newOwner",
          "type": "address"
        }
      ],
      "name": "transferOwnership",
      "outputs": [],
      "stateMutability": "nonpayable",
      "type": "function"
    }
  ],
  "transactionHash": "0x11d928970a1ee65cba982783c7bb35bd59c92f8175d22ddd560f34aa2790c4d3",
  "args": [
    "0x658F8D3F1ca877CB7B7d36AC8Bc31ed056ba8c50",
    "0xa49B496f38f5DbF7F94f6d246808C924a8950509",
    "0x7a250d5630B4cF539739dF2C5dAcb4c659F2488D"
  ],
  "numDeployments": 1,
  "solcInputHash": "90546446fd4fca10cadcb5a4ca90c5bf",
  "bytecode": "0x608060405234801561001057600080fd5b50604051610c1d380380610c1d83398101604081905261002f916100e6565b6100383361007a565b600280546001600160a01b039485166001600160a01b031991821617909155600380549385169382169390931790925560048054919093169116179055610128565b600080546001600160a01b038381166001600160a01b0319831681178455604051919092169283917f8be0079c531659141344cd1fd0a4f28419497f9722a3daafe3b4186f6b6457e09190a35050565b80516001600160a01b03811681146100e157600080fd5b919050565b6000806000606084860312156100fa578283fd5b610103846100ca565b9250610111602085016100ca565b915061011f604085016100ca565b90509250925092565b610ae6806101376000396000f3fe608060405234801561001057600080fd5b50600436106100a35760003560e01c806384ba3f6911610076578063999b93af1161005b578063999b93af14610156578063f2fde38b14610176578063f887ea401461018957600080fd5b806384ba3f69146101255780638da5cb5b1461013857600080fd5b80632c6dbb1c146100a8578063603c2a94146100f2578063715018a61461010857806376e1128614610112575b600080fd5b6002546100c89073ffffffffffffffffffffffffffffffffffffffff1681565b60405173ffffffffffffffffffffffffffffffffffffffff90911681526020015b60405180910390f35b6100fa6101a9565b6040519081526020016100e9565b6101106103f6565b005b610110610120366004610824565b610488565b6100fa610133366004610803565b61055c565b60005473ffffffffffffffffffffffffffffffffffffffff166100c8565b6003546100c89073ffffffffffffffffffffffffffffffffffffffff1681565b610110610184366004610803565b61061b565b6004546100c89073ffffffffffffffffffffffffffffffffffffffff1681565b604080516002808252606082018352600092839291906020830190803683375050600254825192935073ffffffffffffffffffffffffffffffffffffffff1691839150600090610222577f4e487b7100000000000000000000000000000000000000000000000000000000600052603260045260246000fd5b73ffffffffffffffffffffffffffffffffffffffff9283166020918202929092010152600354825191169082906001908110610287577f4e487b7100000000000000000000000000000000000000000000000000000000600052603260045260246000fd5b73ffffffffffffffffffffffffffffffffffffffff9283166020918202929092010152600480546040517fd06ca61f000000000000000000000000000000000000000000000000000000008152600093919091169163d06ca61f916102f891670de0b6b3a764000091879101610983565b60006040518083038186803b15801561031057600080fd5b505afa158015610324573d6000803e3d6000fd5b505050506040513d6000823e601f3d9081017fffffffffffffffffffffffffffffffffffffffffffffffffffffffffffffffe016820160405261036a9190810190610856565b600354909150670de0b6b3a7640000906103999073ffffffffffffffffffffffffffffffffffffffff1661055c565b826001815181106103d3577f4e487b7100000000000000000000000000000000000000000000000000000000600052603260045260246000fd5b60200260200101516103e59190610a1f565b6103ef91906109e6565b9250505090565b60005473ffffffffffffffffffffffffffffffffffffffff16331461047c576040517f08c379a000000000000000000000000000000000000000000000000000000000815260206004820181905260248201527f4f776e61626c653a2063616c6c6572206973206e6f7420746865206f776e657260448201526064015b60405180910390fd5b610486600061074b565b565b60005473ffffffffffffffffffffffffffffffffffffffff163314610509576040517f08c379a000000000000000000000000000000000000000000000000000000000815260206004820181905260248201527f4f776e61626c653a2063616c6c6572206973206e6f7420746865206f776e65726044820152606401610473565b73ffffffffffffffffffffffffffffffffffffffff918216600090815260016020526040902080547fffffffffffffffffffffffff00000000000000000000000000000000000000001691909216179055565b73ffffffffffffffffffffffffffffffffffffffff8082166000908152600160205260408082205481517ffeaf968c00000000000000000000000000000000000000000000000000000000815291519293849391169163feaf968c9160048083019260a0929190829003018186803b1580156105d757600080fd5b505afa1580156105eb573d6000803e3d6000fd5b505050506040513d601f19601f8201168201806040525081019061060f9190610934565b50919695505050505050565b60005473ffffffffffffffffffffffffffffffffffffffff16331461069c576040517f08c379a000000000000000000000000000000000000000000000000000000000815260206004820181905260248201527f4f776e61626c653a2063616c6c6572206973206e6f7420746865206f776e65726044820152606401610473565b73ffffffffffffffffffffffffffffffffffffffff811661073f576040517f08c379a000000000000000000000000000000000000000000000000000000000815260206004820152602660248201527f4f776e61626c653a206e6577206f776e657220697320746865207a65726f206160448201527f64647265737300000000000000000000000000000000000000000000000000006064820152608401610473565b6107488161074b565b50565b6000805473ffffffffffffffffffffffffffffffffffffffff8381167fffffffffffffffffffffffff0000000000000000000000000000000000000000831681178455604051919092169283917f8be0079c531659141344cd1fd0a4f28419497f9722a3daafe3b4186f6b6457e09190a35050565b803573ffffffffffffffffffffffffffffffffffffffff811681146107e457600080fd5b919050565b805169ffffffffffffffffffff811681146107e457600080fd5b600060208284031215610814578081fd5b61081d826107c0565b9392505050565b60008060408385031215610836578081fd5b61083f836107c0565b915061084d602084016107c0565b90509250929050565b60006020808385031215610868578182fd5b825167ffffffffffffffff8082111561087f578384fd5b818501915085601f830112610892578384fd5b8151818111156108a4576108a4610a81565b8060051b6040517fffffffffffffffffffffffffffffffffffffffffffffffffffffffffffffffe0603f830116810181811085821117156108e7576108e7610a81565b604052828152858101935084860182860187018a1015610905578788fd5b8795505b83861015610927578051855260019590950194938601938601610909565b5098975050505050505050565b600080600080600060a0868803121561094b578081fd5b610954866107e9565b9450602086015193506040860151925060608601519150610977608087016107e9565b90509295509295909350565b60006040820184835260206040818501528185518084526060860191508287019350845b818110156109d957845173ffffffffffffffffffffffffffffffffffffffff16835293830193918301916001016109a7565b5090979650505050505050565b600082610a1a577f4e487b710000000000000000000000000000000000000000000000000000000081526012600452602481fd5b500490565b6000817fffffffffffffffffffffffffffffffffffffffffffffffffffffffffffffffff0483118215151615610a7c577f4e487b710000000000000000000000000000000000000000000000000000000081526011600452602481fd5b500290565b7f4e487b7100000000000000000000000000000000000000000000000000000000600052604160045260246000fdfea26469706673582212208c1df9c542d62635f225bface73b598e444df95d40a6d647091f1d3bd006d8a964736f6c63430008040033",
  "devdoc": {
    "kind": "dev",
    "methods": {
      "owner()": {
        "details": "Returns the address of the current owner."
      },
      "renounceOwnership()": {
        "details": "Leaves the contract without owner. It will not be possible to call `onlyOwner` functions anymore. Can only be called by the current owner. NOTE: Renouncing ownership will leave the contract without an owner, thereby removing any functionality that is only available to the owner."
      },
      "transferOwnership(address)": {
        "details": "Transfers ownership of the contract to a new account (`newOwner`). Can only be called by the current owner."
      }
    },
    "version": 1
  },
  "userdoc": {
    "kind": "user",
    "methods": {},
    "version": 1
  },
  "storageLayout": {
    "storage": [
      {
        "astId": 53,
        "contract": "contracts/oracle/Oracle.sol:Oracle",
        "label": "_owner",
        "offset": 0,
        "slot": "0",
        "type": "t_address"
      },
      {
        "astId": 5249,
        "contract": "contracts/oracle/Oracle.sol:Oracle",
        "label": "priceFeedMap",
        "offset": 0,
        "slot": "1",
        "type": "t_mapping(t_address,t_contract(AggregatorV3Interface)45)"
      },
      {
        "astId": 5251,
        "contract": "contracts/oracle/Oracle.sol:Oracle",
        "label": "star",
        "offset": 0,
        "slot": "2",
        "type": "t_address"
      },
      {
        "astId": 5253,
        "contract": "contracts/oracle/Oracle.sol:Oracle",
        "label": "quote",
        "offset": 0,
        "slot": "3",
        "type": "t_address"
      },
      {
        "astId": 5255,
        "contract": "contracts/oracle/Oracle.sol:Oracle",
        "label": "router",
        "offset": 0,
        "slot": "4",
        "type": "t_address"
      }
    ],
    "types": {
      "t_address": {
        "encoding": "inplace",
        "label": "address",
        "numberOfBytes": "20"
      },
      "t_contract(AggregatorV3Interface)45": {
        "encoding": "inplace",
        "label": "contract AggregatorV3Interface",
        "numberOfBytes": "20"
      },
      "t_mapping(t_address,t_contract(AggregatorV3Interface)45)": {
        "encoding": "mapping",
        "key": "t_address",
        "label": "mapping(address => contract AggregatorV3Interface)",
        "numberOfBytes": "32",
        "value": "t_contract(AggregatorV3Interface)45"
      }
    }
  }
}