{
  "address": "0xF2d1f1033f1B5073e06d28ABeB59F1250092fC41",
  "abi": [
    {
      "inputs": [
        {
          "internalType": "address",
          "name": "_rewardsDistribution",
          "type": "address"
        },
        {
          "internalType": "address",
          "name": "_rewardsToken",
          "type": "address"
        },
        {
          "internalType": "address",
          "name": "_stakingToken",
          "type": "address"
        },
        {
          "internalType": "address",
          "name": "_oracle",
          "type": "address"
        }
      ],
      "stateMutability": "nonpayable",
      "type": "constructor"
    },
    {
      "anonymous": false,
      "inputs": [
        {
          "indexed": false,
          "internalType": "uint256",
          "name": "reward",
          "type": "uint256"
        }
      ],
      "name": "RewardAdded",
      "type": "event"
    },
    {
      "anonymous": false,
      "inputs": [
        {
          "indexed": true,
          "internalType": "address",
          "name": "user",
          "type": "address"
        },
        {
          "indexed": false,
          "internalType": "uint256",
          "name": "reward",
          "type": "uint256"
        }
      ],
      "name": "RewardPaid",
      "type": "event"
    },
    {
      "anonymous": false,
      "inputs": [
        {
          "indexed": true,
          "internalType": "address",
          "name": "user",
          "type": "address"
        },
        {
          "indexed": false,
          "internalType": "uint256",
          "name": "amount",
          "type": "uint256"
        }
      ],
      "name": "Staked",
      "type": "event"
    },
    {
      "anonymous": false,
      "inputs": [
        {
          "indexed": true,
          "internalType": "address",
          "name": "user",
          "type": "address"
        },
        {
          "indexed": false,
          "internalType": "uint256",
          "name": "amount",
          "type": "uint256"
        }
      ],
      "name": "Withdrawn",
      "type": "event"
    },
    {
      "inputs": [],
      "name": "apr",
      "outputs": [
        {
          "internalType": "uint256",
          "name": "",
          "type": "uint256"
        }
      ],
      "stateMutability": "view",
      "type": "function"
    },
    {
      "inputs": [
        {
          "internalType": "address",
          "name": "account",
          "type": "address"
        }
      ],
      "name": "balanceOf",
      "outputs": [
        {
          "internalType": "uint256",
          "name": "",
          "type": "uint256"
        }
      ],
      "stateMutability": "view",
      "type": "function"
    },
    {
      "inputs": [
        {
          "internalType": "address",
          "name": "account",
          "type": "address"
        }
      ],
      "name": "earned",
      "outputs": [
        {
          "internalType": "uint256",
          "name": "",
          "type": "uint256"
        }
      ],
      "stateMutability": "view",
      "type": "function"
    },
    {
      "inputs": [],
      "name": "exit",
      "outputs": [],
      "stateMutability": "nonpayable",
      "type": "function"
    },
    {
      "inputs": [],
      "name": "getReward",
      "outputs": [],
      "stateMutability": "nonpayable",
      "type": "function"
    },
    {
      "inputs": [],
      "name": "getRewardForDuration",
      "outputs": [
        {
          "internalType": "uint256",
          "name": "",
          "type": "uint256"
        }
      ],
      "stateMutability": "view",
      "type": "function"
    },
    {
      "inputs": [],
      "name": "lastTimeRewardApplicable",
      "outputs": [
        {
          "internalType": "uint256",
          "name": "",
          "type": "uint256"
        }
      ],
      "stateMutability": "view",
      "type": "function"
    },
    {
      "inputs": [],
      "name": "lastUpdateTime",
      "outputs": [
        {
          "internalType": "uint256",
          "name": "",
          "type": "uint256"
        }
      ],
      "stateMutability": "view",
      "type": "function"
    },
    {
      "inputs": [
        {
          "internalType": "uint256",
          "name": "reward",
          "type": "uint256"
        }
      ],
      "name": "notifyRewardAmount",
      "outputs": [],
      "stateMutability": "nonpayable",
      "type": "function"
    },
    {
      "inputs": [],
      "name": "oracle",
      "outputs": [
        {
          "internalType": "address",
          "name": "",
          "type": "address"
        }
      ],
      "stateMutability": "view",
      "type": "function"
    },
    {
      "inputs": [],
      "name": "periodFinish",
      "outputs": [
        {
          "internalType": "uint256",
          "name": "",
          "type": "uint256"
        }
      ],
      "stateMutability": "view",
      "type": "function"
    },
    {
      "inputs": [],
      "name": "rewardPerToken",
      "outputs": [
        {
          "internalType": "uint256",
          "name": "",
          "type": "uint256"
        }
      ],
      "stateMutability": "view",
      "type": "function"
    },
    {
      "inputs": [],
      "name": "rewardPerTokenStored",
      "outputs": [
        {
          "internalType": "uint256",
          "name": "",
          "type": "uint256"
        }
      ],
      "stateMutability": "view",
      "type": "function"
    },
    {
      "inputs": [],
      "name": "rewardRate",
      "outputs": [
        {
          "internalType": "uint256",
          "name": "",
          "type": "uint256"
        }
      ],
      "stateMutability": "view",
      "type": "function"
    },
    {
      "inputs": [
        {
          "internalType": "address",
          "name": "",
          "type": "address"
        }
      ],
      "name": "rewards",
      "outputs": [
        {
          "internalType": "uint256",
          "name": "",
          "type": "uint256"
        }
      ],
      "stateMutability": "view",
      "type": "function"
    },
    {
      "inputs": [],
      "name": "rewardsDistribution",
      "outputs": [
        {
          "internalType": "address",
          "name": "",
          "type": "address"
        }
      ],
      "stateMutability": "view",
      "type": "function"
    },
    {
      "inputs": [],
      "name": "rewardsDuration",
      "outputs": [
        {
          "internalType": "uint256",
          "name": "",
          "type": "uint256"
        }
      ],
      "stateMutability": "view",
      "type": "function"
    },
    {
      "inputs": [],
      "name": "rewardsToken",
      "outputs": [
        {
          "internalType": "contract IERC20",
          "name": "",
          "type": "address"
        }
      ],
      "stateMutability": "view",
      "type": "function"
    },
    {
      "inputs": [
        {
          "internalType": "uint256",
          "name": "amount",
          "type": "uint256"
        }
      ],
      "name": "stake",
      "outputs": [],
      "stateMutability": "nonpayable",
      "type": "function"
    },
    {
      "inputs": [
        {
          "internalType": "uint256",
          "name": "amount",
          "type": "uint256"
        },
        {
          "internalType": "uint256",
          "name": "deadline",
          "type": "uint256"
        },
        {
          "internalType": "uint8",
          "name": "v",
          "type": "uint8"
        },
        {
          "internalType": "bytes32",
          "name": "r",
          "type": "bytes32"
        },
        {
          "internalType": "bytes32",
          "name": "s",
          "type": "bytes32"
        }
      ],
      "name": "stakeWithPermit",
      "outputs": [],
      "stateMutability": "nonpayable",
      "type": "function"
    },
    {
      "inputs": [],
      "name": "stakingToken",
      "outputs": [
        {
          "internalType": "contract IERC20",
          "name": "",
          "type": "address"
        }
      ],
      "stateMutability": "view",
      "type": "function"
    },
    {
      "inputs": [],
      "name": "totalSupply",
      "outputs": [
        {
          "internalType": "uint256",
          "name": "",
          "type": "uint256"
        }
      ],
      "stateMutability": "view",
      "type": "function"
    },
    {
      "inputs": [
        {
          "internalType": "address",
          "name": "",
          "type": "address"
        }
      ],
      "name": "userRewardPerTokenPaid",
      "outputs": [
        {
          "internalType": "uint256",
          "name": "",
          "type": "uint256"
        }
      ],
      "stateMutability": "view",
      "type": "function"
    },
    {
      "inputs": [
        {
          "internalType": "uint256",
          "name": "amount",
          "type": "uint256"
        }
      ],
      "name": "withdraw",
      "outputs": [],
      "stateMutability": "nonpayable",
      "type": "function"
    }
  ],
  "transactionHash": "0xe105fe8a290448381a74ea333c5477a809222191d0bb7a3ebf0d89a988581811",
  "args": [
    "0x00345EF3d49c570eF89d67666ef3380cC5DF843d",
    "0x658F8D3F1ca877CB7B7d36AC8Bc31ed056ba8c50",
    "0xa49B496f38f5DbF7F94f6d246808C924a8950509",
    "0x0F460E0fC0198e0E64b65c053841117B12C99b47"
  ],
  "numDeployments": 1,
  "solcInputHash": "90546446fd4fca10cadcb5a4ca90c5bf",
  "bytecode": "0x6080604052600060045560006005556301e133806006553480156200002357600080fd5b5060405162001981380380620019818339810160408190526200004691620000be565b6001600081905580546001600160a01b03199081166001600160a01b039586161790915560028054821693851693909317909255600d805483169484169490941790935560038054909116929091169190911790556200011a565b80516001600160a01b0381168114620000b957600080fd5b919050565b60008060008060808587031215620000d4578384fd5b620000df85620000a1565b9350620000ef60208601620000a1565b9250620000ff60408601620000a1565b91506200010f60608601620000a1565b905092959194509250565b611857806200012a6000396000f3fe608060405234801561001057600080fd5b50600436106101975760003560e01c80637b0a47ee116100e3578063cd3daf9d1161008c578063e9fad8ee11610066578063e9fad8ee1461036c578063ebe2b12b14610374578063ecd9ba821461037d57600080fd5b8063cd3daf9d1461033b578063d1af0c7d14610343578063df136d651461036357600080fd5b80638b876347116100bd5780638b876347146102ff578063a694fc3a1461031f578063c8f33c911461033257600080fd5b80637b0a47ee146102ce5780637dc0d1d0146102d757806380faa57d146102f757600080fd5b80633c6b16ab1161014557806357ded9c91161011f57806357ded9c91461027057806370a082311461027857806372f702f3146102ae57600080fd5b80633c6b16ab146102105780633d18b912146102235780633fc6df6e1461022b57600080fd5b80631c1f78eb116101765780631c1f78eb146101ea5780632e1a7d4d146101f2578063386a95251461020757600080fd5b80628cc2621461019c5780630700037d146101c257806318160ddd146101e2575b600080fd5b6101af6101aa3660046115e3565b610390565b6040519081526020015b60405180910390f35b6101af6101d03660046115e3565b600a6020526000908152604090205481565b600b546101af565b6101af610428565b610205610200366004611637565b610446565b005b6101af60065481565b61020561021e366004611637565b61063e565b61020561092f565b600d5461024b9073ffffffffffffffffffffffffffffffffffffffff1681565b60405173ffffffffffffffffffffffffffffffffffffffff90911681526020016101b9565b6101af610a9d565b6101af6102863660046115e3565b73ffffffffffffffffffffffffffffffffffffffff166000908152600c602052604090205490565b60025461024b9073ffffffffffffffffffffffffffffffffffffffff1681565b6101af60055481565b60035461024b9073ffffffffffffffffffffffffffffffffffffffff1681565b6101af610c42565b6101af61030d3660046115e3565b60096020526000908152604090205481565b61020561032d366004611637565b610c50565b6101af60075481565b6101af610e37565b60015461024b9073ffffffffffffffffffffffffffffffffffffffff1681565b6101af60085481565b610205610e83565b6101af60045481565b61020561038b366004611667565b610ea6565b73ffffffffffffffffffffffffffffffffffffffff81166000908152600a60209081526040808320546009909252822054610422919061041c90670de0b6b3a764000090610416906103ea906103e4610e37565b9061114d565b73ffffffffffffffffffffffffffffffffffffffff88166000908152600c602052604090205490611160565b9061116c565b90611178565b92915050565b600061044160065460055461116090919063ffffffff16565b905090565b600260005414156104b8576040517f08c379a000000000000000000000000000000000000000000000000000000000815260206004820152601f60248201527f5265656e7472616e637947756172643a207265656e7472616e742063616c6c0060448201526064015b60405180910390fd5b6002600055336104c6610e37565b6008556104d1610c42565b60075573ffffffffffffffffffffffffffffffffffffffff811615610532576104f981610390565b73ffffffffffffffffffffffffffffffffffffffff82166000908152600a60209081526040808320939093556008546009909152919020555b6000821161059c576040517f08c379a000000000000000000000000000000000000000000000000000000000815260206004820152601160248201527f43616e6e6f74207769746864726177203000000000000000000000000000000060448201526064016104af565b600b546105a9908361114d565b600b55336000908152600c60205260409020546105c6908361114d565b336000818152600c60205260409020919091556002546105ff9173ffffffffffffffffffffffffffffffffffffffff9091169084611184565b60405182815233907f7084f5476618d8e60b11ef0d7d3f06914655adb8793e28ff7f018d4c76d505d5906020015b60405180910390a250506001600055565b600d5473ffffffffffffffffffffffffffffffffffffffff1633146106e5576040517f08c379a000000000000000000000000000000000000000000000000000000000815260206004820152602a60248201527f43616c6c6572206973206e6f742052657761726473446973747269627574696f60448201527f6e20636f6e74726163740000000000000000000000000000000000000000000060648201526084016104af565b60006106ef610e37565b6008556106fa610c42565b60075573ffffffffffffffffffffffffffffffffffffffff81161561075b5761072281610390565b73ffffffffffffffffffffffffffffffffffffffff82166000908152600a60209081526040808320939093556008546009909152919020555b600454421061077a5760065461077290839061116c565b6005556107bd565b60045460009061078a904261114d565b905060006107a36005548361116090919063ffffffff16565b6006549091506107b7906104168684611178565b60055550505b6001546040517f70a0823100000000000000000000000000000000000000000000000000000000815230600482015260009173ffffffffffffffffffffffffffffffffffffffff16906370a082319060240160206040518083038186803b15801561082757600080fd5b505afa15801561083b573d6000803e3d6000fd5b505050506040513d601f19601f8201168201806040525081019061085f919061164f565b90506108766006548261116c90919063ffffffff16565b60055411156108e1576040517f08c379a000000000000000000000000000000000000000000000000000000000815260206004820152601860248201527f50726f76696465642072657761726420746f6f2068696768000000000000000060448201526064016104af565b4260078190556006546108f49190611178565b6004556040518381527fde88a922e0d3b88b24e9623efeb464919c6bf9f66857a65e2bfcf2ce87a9433d9060200160405180910390a1505050565b6002600054141561099c576040517f08c379a000000000000000000000000000000000000000000000000000000000815260206004820152601f60248201527f5265656e7472616e637947756172643a207265656e7472616e742063616c6c0060448201526064016104af565b6002600055336109aa610e37565b6008556109b5610c42565b60075573ffffffffffffffffffffffffffffffffffffffff811615610a16576109dd81610390565b73ffffffffffffffffffffffffffffffffffffffff82166000908152600a60209081526040808320939093556008546009909152919020555b336000908152600a60205260409020548015610a9457336000818152600a6020526040812055600154610a629173ffffffffffffffffffffffffffffffffffffffff9091169083611184565b60405181815233907fe2403640ba68fed3a2f88b7557551d1993f84b99bb10ff833f0cf8db0c5e04869060200161062d565b50506001600055565b6000600b5460001480610ab05750600554155b15610abd5750620f423f90565b6003546002546040517f84ba3f6900000000000000000000000000000000000000000000000000000000815273ffffffffffffffffffffffffffffffffffffffff91821660048201529116906384ba3f699060240160206040518083038186803b158015610b2a57600080fd5b505afa158015610b3e573d6000803e3d6000fd5b505050506040513d601f19601f82011682018060405250810190610b62919061164f565b600b54600360009054906101000a900473ffffffffffffffffffffffffffffffffffffffff1673ffffffffffffffffffffffffffffffffffffffff1663603c2a946040518163ffffffff1660e01b815260040160206040518083038186803b158015610bcd57600080fd5b505afa158015610be1573d6000803e3d6000fd5b505050506040513d601f19601f82011682018060405250810190610c05919061164f565b600554610c16906301e13380611772565b610c209190611772565b610c2e906305f5e100611772565b610c389190611739565b6104419190611739565b60006104414260045461125d565b60026000541415610cbd576040517f08c379a000000000000000000000000000000000000000000000000000000000815260206004820152601f60248201527f5265656e7472616e637947756172643a207265656e7472616e742063616c6c0060448201526064016104af565b600260005533610ccb610e37565b600855610cd6610c42565b60075573ffffffffffffffffffffffffffffffffffffffff811615610d3757610cfe81610390565b73ffffffffffffffffffffffffffffffffffffffff82166000908152600a60209081526040808320939093556008546009909152919020555b60008211610da1576040517f08c379a000000000000000000000000000000000000000000000000000000000815260206004820152600e60248201527f43616e6e6f74207374616b65203000000000000000000000000000000000000060448201526064016104af565b600b54610dae9083611178565b600b55336000908152600c6020526040902054610dcb9083611178565b336000818152600c6020526040902091909155600254610e059173ffffffffffffffffffffffffffffffffffffffff909116903085611273565b60405182815233907f9e71bc8eea02a63969f509818f2dafb9254532904319f9dbda79b67bd34a5f3d9060200161062d565b6000600b5460001415610e4b575060085490565b610441610e7a600b54610416670de0b6b3a7640000610e74600554610e746007546103e4610c42565b90611160565b60085490611178565b336000908152600c6020526040902054610e9c90610446565b610ea461092f565b565b60026000541415610f13576040517f08c379a000000000000000000000000000000000000000000000000000000000815260206004820152601f60248201527f5265656e7472616e637947756172643a207265656e7472616e742063616c6c0060448201526064016104af565b600260005533610f21610e37565b600855610f2c610c42565b60075573ffffffffffffffffffffffffffffffffffffffff811615610f8d57610f5481610390565b73ffffffffffffffffffffffffffffffffffffffff82166000908152600a60209081526040808320939093556008546009909152919020555b60008611610ff7576040517f08c379a000000000000000000000000000000000000000000000000000000000815260206004820152600e60248201527f43616e6e6f74207374616b65203000000000000000000000000000000000000060448201526064016104af565b600b546110049087611178565b600b55336000908152600c60205260409020546110219087611178565b336000818152600c6020526040908190209290925560025491517fd505accf0000000000000000000000000000000000000000000000000000000081526004810191909152306024820152604481018890526064810187905260ff8616608482015260a4810185905260c4810184905273ffffffffffffffffffffffffffffffffffffffff9091169063d505accf9060e401600060405180830381600087803b1580156110cd57600080fd5b505af11580156110e1573d6000803e3d6000fd5b505060025461110b925073ffffffffffffffffffffffffffffffffffffffff169050333089611273565b60405186815233907f9e71bc8eea02a63969f509818f2dafb9254532904319f9dbda79b67bd34a5f3d9060200160405180910390a25050600160005550505050565b600061115982846117af565b9392505050565b60006111598284611772565b60006111598284611739565b60006111598284611721565b60405173ffffffffffffffffffffffffffffffffffffffff83166024820152604481018290526112589084907fa9059cbb00000000000000000000000000000000000000000000000000000000906064015b604080517fffffffffffffffffffffffffffffffffffffffffffffffffffffffffffffffe08184030181529190526020810180517bffffffffffffffffffffffffffffffffffffffffffffffffffffffff167fffffffff00000000000000000000000000000000000000000000000000000000909316929092179091526112d7565b505050565b600081831061126c5781611159565b5090919050565b60405173ffffffffffffffffffffffffffffffffffffffff808516602483015283166044820152606481018290526112d19085907f23b872dd00000000000000000000000000000000000000000000000000000000906084016111d6565b50505050565b6000611339826040518060400160405280602081526020017f5361666545524332303a206c6f772d6c6576656c2063616c6c206661696c65648152508573ffffffffffffffffffffffffffffffffffffffff166113e39092919063ffffffff16565b80519091501561125857808060200190518101906113579190611617565b611258576040517f08c379a000000000000000000000000000000000000000000000000000000000815260206004820152602a60248201527f5361666545524332303a204552433230206f7065726174696f6e20646964206e60448201527f6f7420737563636565640000000000000000000000000000000000000000000060648201526084016104af565b60606113f284846000856113fa565b949350505050565b60608247101561148c576040517f08c379a000000000000000000000000000000000000000000000000000000000815260206004820152602660248201527f416464726573733a20696e73756666696369656e742062616c616e636520666f60448201527f722063616c6c000000000000000000000000000000000000000000000000000060648201526084016104af565b73ffffffffffffffffffffffffffffffffffffffff85163b61150a576040517f08c379a000000000000000000000000000000000000000000000000000000000815260206004820152601d60248201527f416464726573733a2063616c6c20746f206e6f6e2d636f6e747261637400000060448201526064016104af565b6000808673ffffffffffffffffffffffffffffffffffffffff16858760405161153391906116b4565b60006040518083038185875af1925050503d8060008114611570576040519150601f19603f3d011682016040523d82523d6000602084013e611575565b606091505b5091509150611585828286611590565b979650505050505050565b6060831561159f575081611159565b8251156115af5782518084602001fd5b816040517f08c379a00000000000000000000000000000000000000000000000000000000081526004016104af91906116d0565b6000602082840312156115f4578081fd5b813573ffffffffffffffffffffffffffffffffffffffff81168114611159578182fd5b600060208284031215611628578081fd5b81518015158114611159578182fd5b600060208284031215611648578081fd5b5035919050565b600060208284031215611660578081fd5b5051919050565b600080600080600060a0868803121561167e578081fd5b8535945060208601359350604086013560ff8116811461169c578182fd5b94979396509394606081013594506080013592915050565b600082516116c68184602087016117c6565b9190910192915050565b60208152600082518060208401526116ef8160408501602087016117c6565b601f017fffffffffffffffffffffffffffffffffffffffffffffffffffffffffffffffe0169190910160400192915050565b60008219821115611734576117346117f2565b500190565b60008261176d577f4e487b710000000000000000000000000000000000000000000000000000000081526012600452602481fd5b500490565b6000817fffffffffffffffffffffffffffffffffffffffffffffffffffffffffffffffff04831182151516156117aa576117aa6117f2565b500290565b6000828210156117c1576117c16117f2565b500390565b60005b838110156117e15781810151838201526020016117c9565b838111156112d15750506000910152565b7f4e487b7100000000000000000000000000000000000000000000000000000000600052601160045260246000fdfea2646970667358221220aeadbb19fb608baa5666a6cd850cf491550a8d8adf0d2ddbfb17815e7714818164736f6c63430008040033",
  "devdoc": {
    "kind": "dev",
    "methods": {},
    "version": 1
  },
  "userdoc": {
    "kind": "user",
    "methods": {},
    "version": 1
  },
  "storageLayout": {
    "storage": [
      {
        "astId": 161,
        "contract": "contracts/staking/StarStakingUSDC.sol:StarStakingUSDC",
        "label": "_status",
        "offset": 0,
        "slot": "0",
        "type": "t_uint256"
      },
      {
        "astId": 5394,
        "contract": "contracts/staking/StarStakingUSDC.sol:StarStakingUSDC",
        "label": "rewardsToken",
        "offset": 0,
        "slot": "1",
        "type": "t_contract(IERC20)856"
      },
      {
        "astId": 5397,
        "contract": "contracts/staking/StarStakingUSDC.sol:StarStakingUSDC",
        "label": "stakingToken",
        "offset": 0,
        "slot": "2",
        "type": "t_contract(IERC20)856"
      },
      {
        "astId": 5399,
        "contract": "contracts/staking/StarStakingUSDC.sol:StarStakingUSDC",
        "label": "oracle",
        "offset": 0,
        "slot": "3",
        "type": "t_address"
      },
      {
        "astId": 5402,
        "contract": "contracts/staking/StarStakingUSDC.sol:StarStakingUSDC",
        "label": "periodFinish",
        "offset": 0,
        "slot": "4",
        "type": "t_uint256"
      },
      {
        "astId": 5405,
        "contract": "contracts/staking/StarStakingUSDC.sol:StarStakingUSDC",
        "label": "rewardRate",
        "offset": 0,
        "slot": "5",
        "type": "t_uint256"
      },
      {
        "astId": 5408,
        "contract": "contracts/staking/StarStakingUSDC.sol:StarStakingUSDC",
        "label": "rewardsDuration",
        "offset": 0,
        "slot": "6",
        "type": "t_uint256"
      },
      {
        "astId": 5410,
        "contract": "contracts/staking/StarStakingUSDC.sol:StarStakingUSDC",
        "label": "lastUpdateTime",
        "offset": 0,
        "slot": "7",
        "type": "t_uint256"
      },
      {
        "astId": 5412,
        "contract": "contracts/staking/StarStakingUSDC.sol:StarStakingUSDC",
        "label": "rewardPerTokenStored",
        "offset": 0,
        "slot": "8",
        "type": "t_uint256"
      },
      {
        "astId": 5416,
        "contract": "contracts/staking/StarStakingUSDC.sol:StarStakingUSDC",
        "label": "userRewardPerTokenPaid",
        "offset": 0,
        "slot": "9",
        "type": "t_mapping(t_address,t_uint256)"
      },
      {
        "astId": 5420,
        "contract": "contracts/staking/StarStakingUSDC.sol:StarStakingUSDC",
        "label": "rewards",
        "offset": 0,
        "slot": "10",
        "type": "t_mapping(t_address,t_uint256)"
      },
      {
        "astId": 5422,
        "contract": "contracts/staking/StarStakingUSDC.sol:StarStakingUSDC",
        "label": "_totalSupply",
        "offset": 0,
        "slot": "11",
        "type": "t_uint256"
      },
      {
        "astId": 5426,
        "contract": "contracts/staking/StarStakingUSDC.sol:StarStakingUSDC",
        "label": "_balances",
        "offset": 0,
        "slot": "12",
        "type": "t_mapping(t_address,t_uint256)"
      },
      {
        "astId": 5428,
        "contract": "contracts/staking/StarStakingUSDC.sol:StarStakingUSDC",
        "label": "rewardsDistribution",
        "offset": 0,
        "slot": "13",
        "type": "t_address"
      }
    ],
    "types": {
      "t_address": {
        "encoding": "inplace",
        "label": "address",
        "numberOfBytes": "20"
      },
      "t_contract(IERC20)856": {
        "encoding": "inplace",
        "label": "contract IERC20",
        "numberOfBytes": "20"
      },
      "t_mapping(t_address,t_uint256)": {
        "encoding": "mapping",
        "key": "t_address",
        "label": "mapping(address => uint256)",
        "numberOfBytes": "32",
        "value": "t_uint256"
      },
      "t_uint256": {
        "encoding": "inplace",
        "label": "uint256",
        "numberOfBytes": "32"
      }
    }
  }
}