{
  "address": "0xDd16BcbB6F0DCf28ECfD2eD5DA664c5d3B89b5EE",
  "abi": [
    {
      "inputs": [
        {
          "internalType": "address",
          "name": "_rewardsDistribution",
          "type": "address"
        },
        {
          "internalType": "address",
          "name": "_rewardsToken",
          "type": "address"
        },
        {
          "internalType": "address",
          "name": "_stakingToken",
          "type": "address"
        }
      ],
      "stateMutability": "nonpayable",
      "type": "constructor"
    },
    {
      "anonymous": false,
      "inputs": [
        {
          "indexed": false,
          "internalType": "uint256",
          "name": "reward",
          "type": "uint256"
        }
      ],
      "name": "RewardAdded",
      "type": "event"
    },
    {
      "anonymous": false,
      "inputs": [
        {
          "indexed": true,
          "internalType": "address",
          "name": "user",
          "type": "address"
        },
        {
          "indexed": false,
          "internalType": "uint256",
          "name": "reward",
          "type": "uint256"
        }
      ],
      "name": "RewardPaid",
      "type": "event"
    },
    {
      "anonymous": false,
      "inputs": [
        {
          "indexed": true,
          "internalType": "address",
          "name": "user",
          "type": "address"
        },
        {
          "indexed": false,
          "internalType": "uint256",
          "name": "amount",
          "type": "uint256"
        }
      ],
      "name": "Staked",
      "type": "event"
    },
    {
      "anonymous": false,
      "inputs": [
        {
          "indexed": true,
          "internalType": "address",
          "name": "user",
          "type": "address"
        },
        {
          "indexed": false,
          "internalType": "uint256",
          "name": "amount",
          "type": "uint256"
        }
      ],
      "name": "Withdrawn",
      "type": "event"
    },
    {
      "inputs": [
        {
          "internalType": "address",
          "name": "account",
          "type": "address"
        }
      ],
      "name": "balanceOf",
      "outputs": [
        {
          "internalType": "uint256",
          "name": "",
          "type": "uint256"
        }
      ],
      "stateMutability": "view",
      "type": "function"
    },
    {
      "inputs": [
        {
          "internalType": "address",
          "name": "account",
          "type": "address"
        }
      ],
      "name": "earned",
      "outputs": [
        {
          "internalType": "uint256",
          "name": "",
          "type": "uint256"
        }
      ],
      "stateMutability": "view",
      "type": "function"
    },
    {
      "inputs": [],
      "name": "exit",
      "outputs": [],
      "stateMutability": "nonpayable",
      "type": "function"
    },
    {
      "inputs": [],
      "name": "getReward",
      "outputs": [],
      "stateMutability": "nonpayable",
      "type": "function"
    },
    {
      "inputs": [],
      "name": "getRewardForDuration",
      "outputs": [
        {
          "internalType": "uint256",
          "name": "",
          "type": "uint256"
        }
      ],
      "stateMutability": "view",
      "type": "function"
    },
    {
      "inputs": [],
      "name": "lastTimeRewardApplicable",
      "outputs": [
        {
          "internalType": "uint256",
          "name": "",
          "type": "uint256"
        }
      ],
      "stateMutability": "view",
      "type": "function"
    },
    {
      "inputs": [],
      "name": "lastUpdateTime",
      "outputs": [
        {
          "internalType": "uint256",
          "name": "",
          "type": "uint256"
        }
      ],
      "stateMutability": "view",
      "type": "function"
    },
    {
      "inputs": [
        {
          "internalType": "uint256",
          "name": "reward",
          "type": "uint256"
        }
      ],
      "name": "notifyRewardAmount",
      "outputs": [],
      "stateMutability": "nonpayable",
      "type": "function"
    },
    {
      "inputs": [],
      "name": "periodFinish",
      "outputs": [
        {
          "internalType": "uint256",
          "name": "",
          "type": "uint256"
        }
      ],
      "stateMutability": "view",
      "type": "function"
    },
    {
      "inputs": [],
      "name": "rewardPerToken",
      "outputs": [
        {
          "internalType": "uint256",
          "name": "",
          "type": "uint256"
        }
      ],
      "stateMutability": "view",
      "type": "function"
    },
    {
      "inputs": [],
      "name": "rewardPerTokenStored",
      "outputs": [
        {
          "internalType": "uint256",
          "name": "",
          "type": "uint256"
        }
      ],
      "stateMutability": "view",
      "type": "function"
    },
    {
      "inputs": [],
      "name": "rewardRate",
      "outputs": [
        {
          "internalType": "uint256",
          "name": "",
          "type": "uint256"
        }
      ],
      "stateMutability": "view",
      "type": "function"
    },
    {
      "inputs": [
        {
          "internalType": "address",
          "name": "",
          "type": "address"
        }
      ],
      "name": "rewards",
      "outputs": [
        {
          "internalType": "uint256",
          "name": "",
          "type": "uint256"
        }
      ],
      "stateMutability": "view",
      "type": "function"
    },
    {
      "inputs": [],
      "name": "rewardsDistribution",
      "outputs": [
        {
          "internalType": "address",
          "name": "",
          "type": "address"
        }
      ],
      "stateMutability": "view",
      "type": "function"
    },
    {
      "inputs": [],
      "name": "rewardsDuration",
      "outputs": [
        {
          "internalType": "uint256",
          "name": "",
          "type": "uint256"
        }
      ],
      "stateMutability": "view",
      "type": "function"
    },
    {
      "inputs": [],
      "name": "rewardsToken",
      "outputs": [
        {
          "internalType": "contract IERC20",
          "name": "",
          "type": "address"
        }
      ],
      "stateMutability": "view",
      "type": "function"
    },
    {
      "inputs": [
        {
          "internalType": "uint256",
          "name": "amount",
          "type": "uint256"
        }
      ],
      "name": "stake",
      "outputs": [],
      "stateMutability": "nonpayable",
      "type": "function"
    },
    {
      "inputs": [
        {
          "internalType": "uint256",
          "name": "amount",
          "type": "uint256"
        },
        {
          "internalType": "uint256",
          "name": "deadline",
          "type": "uint256"
        },
        {
          "internalType": "uint8",
          "name": "v",
          "type": "uint8"
        },
        {
          "internalType": "bytes32",
          "name": "r",
          "type": "bytes32"
        },
        {
          "internalType": "bytes32",
          "name": "s",
          "type": "bytes32"
        }
      ],
      "name": "stakeWithPermit",
      "outputs": [],
      "stateMutability": "nonpayable",
      "type": "function"
    },
    {
      "inputs": [],
      "name": "stakingToken",
      "outputs": [
        {
          "internalType": "contract IERC20",
          "name": "",
          "type": "address"
        }
      ],
      "stateMutability": "view",
      "type": "function"
    },
    {
      "inputs": [],
      "name": "totalSupply",
      "outputs": [
        {
          "internalType": "uint256",
          "name": "",
          "type": "uint256"
        }
      ],
      "stateMutability": "view",
      "type": "function"
    },
    {
      "inputs": [
        {
          "internalType": "address",
          "name": "",
          "type": "address"
        }
      ],
      "name": "userRewardPerTokenPaid",
      "outputs": [
        {
          "internalType": "uint256",
          "name": "",
          "type": "uint256"
        }
      ],
      "stateMutability": "view",
      "type": "function"
    },
    {
      "inputs": [
        {
          "internalType": "uint256",
          "name": "amount",
          "type": "uint256"
        }
      ],
      "name": "withdraw",
      "outputs": [],
      "stateMutability": "nonpayable",
      "type": "function"
    }
  ],
  "transactionHash": "0x32ff74431f615296b84c54c5c4e03b23610abd54e88c3b559ba07ca50fe70dc2",
  "args": [
    "0x00345EF3d49c570eF89d67666ef3380cC5DF843d",
    "0x14c0C7617aeC8713C7959252bCEb505D3ee4688a",
    "0xAF64aC35530CC84672FbD8bb117439AfAe4D3bE3"
  ],
  "numDeployments": 1,
  "solcInputHash": "fb6aa863561d6e2caf6f7e31a26b827a",
  "bytecode": "0x6080604052600060035560006004556301e133806005553480156200002357600080fd5b506040516200177b3803806200177b8339810160408190526200004691620000ae565b6001600081905580546001600160a01b039384166001600160a01b0319918216179091556002805492841692821692909217909155600c8054939092169216919091179055620000f7565b80516001600160a01b0381168114620000a957600080fd5b919050565b600080600060608486031215620000c3578283fd5b620000ce8462000091565b9250620000de6020850162000091565b9150620000ee6040850162000091565b90509250925092565b61167480620001076000396000f3fe608060405234801561001057600080fd5b50600436106101815760003560e01c80637b0a47ee116100d8578063cd3daf9d1161008c578063e9fad8ee11610066578063e9fad8ee1461032e578063ebe2b12b14610336578063ecd9ba821461033f57600080fd5b8063cd3daf9d146102fd578063d1af0c7d14610305578063df136d651461032557600080fd5b80638b876347116100bd5780638b876347146102c1578063a694fc3a146102e1578063c8f33c91146102f457600080fd5b80637b0a47ee146102b057806380faa57d146102b957600080fd5b8063386a95251161013a5780633fc6df6e116101145780633fc6df6e1461021557806370a082311461025a57806372f702f31461029057600080fd5b8063386a9525146101f15780633c6b16ab146101fa5780633d18b9121461020d57600080fd5b806318160ddd1161016b57806318160ddd146101cc5780631c1f78eb146101d45780632e1a7d4d146101dc57600080fd5b80628cc262146101865780630700037d146101ac575b600080fd5b610199610194366004611400565b610352565b6040519081526020015b60405180910390f35b6101996101ba366004611400565b60096020526000908152604090205481565b600a54610199565b6101996103ea565b6101ef6101ea366004611454565b610408565b005b61019960055481565b6101ef610208366004611454565b610600565b6101ef6108f1565b600c546102359073ffffffffffffffffffffffffffffffffffffffff1681565b60405173ffffffffffffffffffffffffffffffffffffffff90911681526020016101a3565b610199610268366004611400565b73ffffffffffffffffffffffffffffffffffffffff166000908152600b602052604090205490565b6002546102359073ffffffffffffffffffffffffffffffffffffffff1681565b61019960045481565b610199610a5f565b6101996102cf366004611400565b60086020526000908152604090205481565b6101ef6102ef366004611454565b610a6d565b61019960065481565b610199610c54565b6001546102359073ffffffffffffffffffffffffffffffffffffffff1681565b61019960075481565b6101ef610ca0565b61019960035481565b6101ef61034d366004611484565b610cc3565b73ffffffffffffffffffffffffffffffffffffffff811660009081526009602090815260408083205460089092528220546103e491906103de90670de0b6b3a7640000906103d8906103ac906103a6610c54565b90610f6a565b73ffffffffffffffffffffffffffffffffffffffff88166000908152600b602052604090205490610f7d565b90610f89565b90610f95565b92915050565b6000610403600554600454610f7d90919063ffffffff16565b905090565b6002600054141561047a576040517f08c379a000000000000000000000000000000000000000000000000000000000815260206004820152601f60248201527f5265656e7472616e637947756172643a207265656e7472616e742063616c6c0060448201526064015b60405180910390fd5b600260005533610488610c54565b600755610493610a5f565b60065573ffffffffffffffffffffffffffffffffffffffff8116156104f4576104bb81610352565b73ffffffffffffffffffffffffffffffffffffffff82166000908152600960209081526040808320939093556007546008909152919020555b6000821161055e576040517f08c379a000000000000000000000000000000000000000000000000000000000815260206004820152601160248201527f43616e6e6f7420776974686472617720300000000000000000000000000000006044820152606401610471565b600a5461056b9083610f6a565b600a55336000908152600b60205260409020546105889083610f6a565b336000818152600b60205260409020919091556002546105c19173ffffffffffffffffffffffffffffffffffffffff9091169084610fa1565b60405182815233907f7084f5476618d8e60b11ef0d7d3f06914655adb8793e28ff7f018d4c76d505d5906020015b60405180910390a250506001600055565b600c5473ffffffffffffffffffffffffffffffffffffffff1633146106a7576040517f08c379a000000000000000000000000000000000000000000000000000000000815260206004820152602a60248201527f43616c6c6572206973206e6f742052657761726473446973747269627574696f60448201527f6e20636f6e7472616374000000000000000000000000000000000000000000006064820152608401610471565b60006106b1610c54565b6007556106bc610a5f565b60065573ffffffffffffffffffffffffffffffffffffffff81161561071d576106e481610352565b73ffffffffffffffffffffffffffffffffffffffff82166000908152600960209081526040808320939093556007546008909152919020555b600354421061073c57600554610734908390610f89565b60045561077f565b60035460009061074c9042610f6a565b9050600061076560045483610f7d90919063ffffffff16565b600554909150610779906103d88684610f95565b60045550505b6001546040517f70a0823100000000000000000000000000000000000000000000000000000000815230600482015260009173ffffffffffffffffffffffffffffffffffffffff16906370a082319060240160206040518083038186803b1580156107e957600080fd5b505afa1580156107fd573d6000803e3d6000fd5b505050506040513d601f19601f82011682018060405250810190610821919061146c565b905061083860055482610f8990919063ffffffff16565b60045411156108a3576040517f08c379a000000000000000000000000000000000000000000000000000000000815260206004820152601860248201527f50726f76696465642072657761726420746f6f206869676800000000000000006044820152606401610471565b4260068190556005546108b69190610f95565b6003556040518381527fde88a922e0d3b88b24e9623efeb464919c6bf9f66857a65e2bfcf2ce87a9433d9060200160405180910390a1505050565b6002600054141561095e576040517f08c379a000000000000000000000000000000000000000000000000000000000815260206004820152601f60248201527f5265656e7472616e637947756172643a207265656e7472616e742063616c6c006044820152606401610471565b60026000553361096c610c54565b600755610977610a5f565b60065573ffffffffffffffffffffffffffffffffffffffff8116156109d85761099f81610352565b73ffffffffffffffffffffffffffffffffffffffff82166000908152600960209081526040808320939093556007546008909152919020555b336000908152600960205260409020548015610a565733600081815260096020526040812055600154610a249173ffffffffffffffffffffffffffffffffffffffff9091169083610fa1565b60405181815233907fe2403640ba68fed3a2f88b7557551d1993f84b99bb10ff833f0cf8db0c5e0486906020016105ef565b50506001600055565b60006104034260035461107a565b60026000541415610ada576040517f08c379a000000000000000000000000000000000000000000000000000000000815260206004820152601f60248201527f5265656e7472616e637947756172643a207265656e7472616e742063616c6c006044820152606401610471565b600260005533610ae8610c54565b600755610af3610a5f565b60065573ffffffffffffffffffffffffffffffffffffffff811615610b5457610b1b81610352565b73ffffffffffffffffffffffffffffffffffffffff82166000908152600960209081526040808320939093556007546008909152919020555b60008211610bbe576040517f08c379a000000000000000000000000000000000000000000000000000000000815260206004820152600e60248201527f43616e6e6f74207374616b6520300000000000000000000000000000000000006044820152606401610471565b600a54610bcb9083610f95565b600a55336000908152600b6020526040902054610be89083610f95565b336000818152600b6020526040902091909155600254610c229173ffffffffffffffffffffffffffffffffffffffff909116903085611090565b60405182815233907f9e71bc8eea02a63969f509818f2dafb9254532904319f9dbda79b67bd34a5f3d906020016105ef565b6000600a5460001415610c68575060075490565b610403610c97600a546103d8670de0b6b3a7640000610c91600454610c916006546103a6610a5f565b90610f7d565b60075490610f95565b336000908152600b6020526040902054610cb990610408565b610cc16108f1565b565b60026000541415610d30576040517f08c379a000000000000000000000000000000000000000000000000000000000815260206004820152601f60248201527f5265656e7472616e637947756172643a207265656e7472616e742063616c6c006044820152606401610471565b600260005533610d3e610c54565b600755610d49610a5f565b60065573ffffffffffffffffffffffffffffffffffffffff811615610daa57610d7181610352565b73ffffffffffffffffffffffffffffffffffffffff82166000908152600960209081526040808320939093556007546008909152919020555b60008611610e14576040517f08c379a000000000000000000000000000000000000000000000000000000000815260206004820152600e60248201527f43616e6e6f74207374616b6520300000000000000000000000000000000000006044820152606401610471565b600a54610e219087610f95565b600a55336000908152600b6020526040902054610e3e9087610f95565b336000818152600b6020526040908190209290925560025491517fd505accf0000000000000000000000000000000000000000000000000000000081526004810191909152306024820152604481018890526064810187905260ff8616608482015260a4810185905260c4810184905273ffffffffffffffffffffffffffffffffffffffff9091169063d505accf9060e401600060405180830381600087803b158015610eea57600080fd5b505af1158015610efe573d6000803e3d6000fd5b5050600254610f28925073ffffffffffffffffffffffffffffffffffffffff169050333089611090565b60405186815233907f9e71bc8eea02a63969f509818f2dafb9254532904319f9dbda79b67bd34a5f3d9060200160405180910390a25050600160005550505050565b6000610f7682846115cc565b9392505050565b6000610f76828461158f565b6000610f768284611556565b6000610f76828461153e565b60405173ffffffffffffffffffffffffffffffffffffffff83166024820152604481018290526110759084907fa9059cbb00000000000000000000000000000000000000000000000000000000906064015b604080517fffffffffffffffffffffffffffffffffffffffffffffffffffffffffffffffe08184030181529190526020810180517bffffffffffffffffffffffffffffffffffffffffffffffffffffffff167fffffffff00000000000000000000000000000000000000000000000000000000909316929092179091526110f4565b505050565b60008183106110895781610f76565b5090919050565b60405173ffffffffffffffffffffffffffffffffffffffff808516602483015283166044820152606481018290526110ee9085907f23b872dd0000000000000000000000000000000000000000000000000000000090608401610ff3565b50505050565b6000611156826040518060400160405280602081526020017f5361666545524332303a206c6f772d6c6576656c2063616c6c206661696c65648152508573ffffffffffffffffffffffffffffffffffffffff166112009092919063ffffffff16565b80519091501561107557808060200190518101906111749190611434565b611075576040517f08c379a000000000000000000000000000000000000000000000000000000000815260206004820152602a60248201527f5361666545524332303a204552433230206f7065726174696f6e20646964206e60448201527f6f742073756363656564000000000000000000000000000000000000000000006064820152608401610471565b606061120f8484600085611217565b949350505050565b6060824710156112a9576040517f08c379a000000000000000000000000000000000000000000000000000000000815260206004820152602660248201527f416464726573733a20696e73756666696369656e742062616c616e636520666f60448201527f722063616c6c00000000000000000000000000000000000000000000000000006064820152608401610471565b73ffffffffffffffffffffffffffffffffffffffff85163b611327576040517f08c379a000000000000000000000000000000000000000000000000000000000815260206004820152601d60248201527f416464726573733a2063616c6c20746f206e6f6e2d636f6e74726163740000006044820152606401610471565b6000808673ffffffffffffffffffffffffffffffffffffffff16858760405161135091906114d1565b60006040518083038185875af1925050503d806000811461138d576040519150601f19603f3d011682016040523d82523d6000602084013e611392565b606091505b50915091506113a28282866113ad565b979650505050505050565b606083156113bc575081610f76565b8251156113cc5782518084602001fd5b816040517f08c379a000000000000000000000000000000000000000000000000000000000815260040161047191906114ed565b600060208284031215611411578081fd5b813573ffffffffffffffffffffffffffffffffffffffff81168114610f76578182fd5b600060208284031215611445578081fd5b81518015158114610f76578182fd5b600060208284031215611465578081fd5b5035919050565b60006020828403121561147d578081fd5b5051919050565b600080600080600060a0868803121561149b578081fd5b8535945060208601359350604086013560ff811681146114b9578182fd5b94979396509394606081013594506080013592915050565b600082516114e38184602087016115e3565b9190910192915050565b602081526000825180602084015261150c8160408501602087016115e3565b601f017fffffffffffffffffffffffffffffffffffffffffffffffffffffffffffffffe0169190910160400192915050565b600082198211156115515761155161160f565b500190565b60008261158a577f4e487b710000000000000000000000000000000000000000000000000000000081526012600452602481fd5b500490565b6000817fffffffffffffffffffffffffffffffffffffffffffffffffffffffffffffffff04831182151516156115c7576115c761160f565b500290565b6000828210156115de576115de61160f565b500390565b60005b838110156115fe5781810151838201526020016115e6565b838111156110ee5750506000910152565b7f4e487b7100000000000000000000000000000000000000000000000000000000600052601160045260246000fdfea264697066735822122012fe87d4f8263cbf248a3d3aaf30e104a90d52bfd02f501e42a46e41639ced9b64736f6c63430008040033",
  "devdoc": {
    "kind": "dev",
    "methods": {},
    "version": 1
  },
  "userdoc": {
    "kind": "user",
    "methods": {},
    "version": 1
  },
  "storageLayout": {
    "storage": [
      {
        "astId": 115,
        "contract": "contracts/staking/StarStakingUSDC.sol:StarStakingUSDC",
        "label": "_status",
        "offset": 0,
        "slot": "0",
        "type": "t_uint256"
      },
      {
        "astId": 3888,
        "contract": "contracts/staking/StarStakingUSDC.sol:StarStakingUSDC",
        "label": "rewardsToken",
        "offset": 0,
        "slot": "1",
        "type": "t_contract(IERC20)810"
      },
      {
        "astId": 3891,
        "contract": "contracts/staking/StarStakingUSDC.sol:StarStakingUSDC",
        "label": "stakingToken",
        "offset": 0,
        "slot": "2",
        "type": "t_contract(IERC20)810"
      },
      {
        "astId": 3894,
        "contract": "contracts/staking/StarStakingUSDC.sol:StarStakingUSDC",
        "label": "periodFinish",
        "offset": 0,
        "slot": "3",
        "type": "t_uint256"
      },
      {
        "astId": 3897,
        "contract": "contracts/staking/StarStakingUSDC.sol:StarStakingUSDC",
        "label": "rewardRate",
        "offset": 0,
        "slot": "4",
        "type": "t_uint256"
      },
      {
        "astId": 3900,
        "contract": "contracts/staking/StarStakingUSDC.sol:StarStakingUSDC",
        "label": "rewardsDuration",
        "offset": 0,
        "slot": "5",
        "type": "t_uint256"
      },
      {
        "astId": 3902,
        "contract": "contracts/staking/StarStakingUSDC.sol:StarStakingUSDC",
        "label": "lastUpdateTime",
        "offset": 0,
        "slot": "6",
        "type": "t_uint256"
      },
      {
        "astId": 3904,
        "contract": "contracts/staking/StarStakingUSDC.sol:StarStakingUSDC",
        "label": "rewardPerTokenStored",
        "offset": 0,
        "slot": "7",
        "type": "t_uint256"
      },
      {
        "astId": 3908,
        "contract": "contracts/staking/StarStakingUSDC.sol:StarStakingUSDC",
        "label": "userRewardPerTokenPaid",
        "offset": 0,
        "slot": "8",
        "type": "t_mapping(t_address,t_uint256)"
      },
      {
        "astId": 3912,
        "contract": "contracts/staking/StarStakingUSDC.sol:StarStakingUSDC",
        "label": "rewards",
        "offset": 0,
        "slot": "9",
        "type": "t_mapping(t_address,t_uint256)"
      },
      {
        "astId": 3914,
        "contract": "contracts/staking/StarStakingUSDC.sol:StarStakingUSDC",
        "label": "_totalSupply",
        "offset": 0,
        "slot": "10",
        "type": "t_uint256"
      },
      {
        "astId": 3918,
        "contract": "contracts/staking/StarStakingUSDC.sol:StarStakingUSDC",
        "label": "_balances",
        "offset": 0,
        "slot": "11",
        "type": "t_mapping(t_address,t_uint256)"
      },
      {
        "astId": 3920,
        "contract": "contracts/staking/StarStakingUSDC.sol:StarStakingUSDC",
        "label": "rewardsDistribution",
        "offset": 0,
        "slot": "12",
        "type": "t_address"
      }
    ],
    "types": {
      "t_address": {
        "encoding": "inplace",
        "label": "address",
        "numberOfBytes": "20"
      },
      "t_contract(IERC20)810": {
        "encoding": "inplace",
        "label": "contract IERC20",
        "numberOfBytes": "20"
      },
      "t_mapping(t_address,t_uint256)": {
        "encoding": "mapping",
        "key": "t_address",
        "label": "mapping(address => uint256)",
        "numberOfBytes": "32",
        "value": "t_uint256"
      },
      "t_uint256": {
        "encoding": "inplace",
        "label": "uint256",
        "numberOfBytes": "32"
      }
    }
  }
}